:100000000A128A11EA2F00308A000408840A820743
:100010000034003480343F34723431343F34FE34A1
:1000200075343E34583463343D3495341D343C3497
:10003000C534AE343A34793421343934943480348C
:1000400037349334A73435345634153434340034CB
:1000500000340034003480343F34F034FF34BE3494
:10006000E234A9343E3483347634BE34AE342B3497
:100070003E343C34C334BD34D23413343D3478344C
:10008000D334BB343434343430342E34303430341C
:100090002C34203441343434203400343434393472
:1000A00033342E34383438342C342034423434341D
:1000B000203400343234363431342E343634333450
:1000C0002C34203443343434203400343234393442
:1000D00033342E34363436342C34203444343434EF
:1000E000203400343334323439342E34363433341B
:1000F0002C34203445343434203400343334343414
:1001000039342E34323433342C34203446343434BD
:10011000203400343334393432342E3430343034F3
:100120002C342034473434342034003435343234E1
:1001300033342E34323435342C3420344334353493
:10014000203400343434363436342E3431343634BA
:100150002C342034413434342334003432343734B2
:1001600037342E34313438342C342034433434345E
:10017000233400343334313431342E343134333495
:100180002C3420344434343423340034333436347F
:1001900039342E34393439342C3420344634343420
:1001A000233400343434313435342E343334303461
:1001B0002C342034413434346234003430342E341E
:0A01C0003034303430343034003471
:1008E6000330F1009730F000F00B772CF10B772CEA
:1008F6007C2C08000330F1009730F000F00B812CBF
:10090600F10B812C862C080045344C344534433495
:10091600543452344F344E3449344334533400340F
:100926008312031388160A128A1173240A128A1173
:100936008312031388120A128A11732408007E0890
:100946008A007F088200A2240A128A118000840A83
:1009560004087D0603190034FF0A0319FE0AA62CB3
:10096600F30083120313881208120808F03973047F
:1009760088000A128A1193240A128A118312031319
:100986000808F039720488000A128A1193240800B4
:1009960083120313881208120808F03988000A1215
:1009A6008A1193240A128A11831203130808F03954
:1009B600013888000A128A1193240A128A110A122F
:1009C6008A117D240800F700F6017608770784006F
:1009D6000A128A1103200A128A1100380319080024
:1009E6007608770784000A128A1103200A128A11F0
:1009F600F20004300310F20CFF3E031DFD2C7208BA
:100A06000F39F3007308F5007608770784000A1299
:100A16008A1103200A128A110F39F2007208F400B3
:100A26008312031308160808F039750488000A12A1
:100A36008A1193240A128A11831203130808F039C3
:100A4600740488000A128A1193240A128A1101304A
:100A5600F2007208F607E82C0330831203138800AD
:100A66000A128A1193240A128A110A128A117D2403
:100A76000A128A1102308312031388000A128A119D
:100A860093240A128A110A128A117D240A128A11E3
:100A960002308312031388000A128A1193240A1261
:100AA6008A110A128A117D240A128A1108308312C9
:100AB600031388000A128A1193240A128A110A1251
:100AC6008A117D240A128A118312031388010A12DD
:100AD6008A1193240A128A110C3083120313880098
:100AE6000A128A1193240A128A110A128A117D2483
:100AF6000A128A118312031388010A128A11932497
:100B06000A128A1106308312031388000A128A1108
:100B160093240800362EF20108300A128A11B324F3
:100B26000A128A1152300A128A11E6240800F201CA
:100B360008300A128A11B3240A128A11A6300A1240
:100B46008A11E6240800F20108300A128A11B32439
:100B56000A128A115E300A128A11E6240800F2018E
:100B660008300A128A11B3240A128A11B2300A1204
:100B76008A11E6240800F20108300A128A11B32409
:100B86000A128A116A300A128A11E6240800F20152
:100B960008300A128A11B3240A128A1176300A1210
:100BA6008A11E6240800F20108300A128A11B324D9
:100BB6000A128A11BE300A128A11E6240800F201CE
:100BC60008300A128A11B3240A128A1182300A12D4
:100BD6008A11E6240800F20108300A128A11B324A9
:100BE6000A128A11CA300A128A11E6240800F20192
:100BF60008300A128A11B3240A128A113A300A12EC
:100C06008A11E6240800F20108300A128A11B32478
:100C16000A128A119A300A128A11E6240800F20191
:100C260008300A128A11B3240A128A1146300A12AF
:100C36008A11E6240800F20108300A128A11B32448
:100C46000A128A118E300A128A11E6240800F2016D
:100C560008300A128A11B3240A128A11D6300A12EF
:100C66008A11E6240800831203130508003A0319C3
:100C76004F2E013A0319662E033A03196B2E063AD4
:100C86000319702E0C3A0319752E183A03197A2E89
:100C9600303A03197F2E2A2E0608013A03198E2DA3
:100CA600033A03199A2D063A0319A62D143A031985
:100CB600BE2D303A0319CA2D603A0319D62DC03A13
:100CC6000319E22D2A2E0608003A0319EE2D2A2EC4
:100CD6000608003A0319FA2D2A2E0608003A0319C7
:100CE600062E2A2E0608003A0319122E2A2E060868
:100CF600003A03191E2E2A2E0608003A0319B22DB1
:100D06002A2E08000630831603139F003F30850005
:100D1600FF30860087018801890183120313890148
:100D26008801870186018501023092000C30970008
:100D3600773095000A128A112F250A128A1183121A
:100D4600031391018715952FEF3083160313920035
:100D5600831203131215061C912F0A128A118D2570
:100D66000A128A11831203138817AE2EE1308316F6
:100D760003139200831203131215861C912F0A1275
:100D86008A118D250A128A11831203138817C02E21
:100D9600D530831603139200831203131215061D12
:100DA600912F0A128A118D250A128A1183120313B2
:100DB6008817D22EC93083160313920083120313A9
:100DC6001215851E912F0A128A118D250A128A1173
:100DD600831203138817E42EBE3083160313920082
:100DE600831203131215061E912F0A128A118D25DE
:100DF6000A128A11831203138817F62EB33083164C
:100E060003139200831203131215861E912F0A12E2
:100E16008A118D250A128A11831203138817082F47
:100E2600A930831603139200831203131215061FAB
:100E3600912F0A128A118D250A128A118312031321
:100E460088171A2F9F3083160313920083120313F9
:100E56001215861F912F0A128A118D250A128A11E0
:100E66008312031388172C2F9630831603139200D0
:100E7600831203131215051C912F0A128A118D2550
:100E86000A128A118312031388173E2F8E30831697
:100E960003139200831203131215851C912F0A1255
:100EA6008A118D250A128A11831203138817502F6F
:100EB6008630831603139200831203131215051D41
:100EC600912F0A128A118D250A128A118312031391
:100ED6008817622F7F308316031392008312031341
:100EE6001215851D912F0A128A118D250A128A1153
:100EF600831203138817742F773083160313920017
:100F0600831203131215051E912F0A128A118D25BD
:100F16000A128A11831203138817862F8813E12F6A
:100F26001211E12F0508003A0319AC2F013A0319F3
:100F3600C32F033A0319C82F063A0319CD2F0C3ACB
:100F46000319D22F183A0319D72F303A0319DC2F79
:100F5600932F0608013A0319A72E033A0319B92E4F
:100F6600063A0319CB2E143A0319EF2E303A031919
:100F7600012F603A0319132FC03A0319252F932F17
:100F86000608003A0319372F932F0608003A03196B
:100F9600492F932F0608003A03195B2F932F060853
:100FA600003A03196D2F932F0608003A03197F2F75
:100FB600932F0608003A0319DD2E932F0A128A1181
:100FC600CB240A128A11831203131211A22EF801DE
:100FD600F901FA01FB01FC01FD0183132C30FD0030
:100FE6000430FE008730FF00203084000A128A1188
:0A0FF600A62483010A128A11852E39
:02400E00FAFFB7
:00000001FF
